:1000000000000120B5020000DD020000DF02000058
:10001000E1020000E3020000E50200000000000031
:10002000000000000000000000000000E7020000E7
:10003000E902000000000000EB020000ED020000F9
:10004000EF020000EF020000EF020000EF020000EC
:10005000EF020000EF020000FD050000EF020000CB
:100060006D080000EF020000EF020000EF02000048
:10007000EF020000EF020000EF020000EF020000BC
:10008000EF020000EF020000EF020000EF020000AC
:10009000EF020000EF020000EF020000EF0200009C
:1000A000EF020000EF020000EF020000EF0200008C
:1000B000EF020000EF02000000000000000000005E
:1000C000EF020000EF020000EF020000EF0200006C
:1000D000EF020000EF020000EF020000000000004D
:1000E0000000000000000000000000000000000010
:1000F0000000000000000000000000000000000000
:1001000000000000000000000000000000000000EF
:1001100000000000000000000000000000000000DF
:1001200000000000000000000000000000000000CF
:1001300000000000000000000000000000000000BF
:1001400000000000000000000000000000000000AF
:10015000000000000000000000000000000000009F
:10016000000000000000000000000000000000008F
:10017000000000000000000000000000000000007F
:10018000000000000000000000000000000000006F
:10019000000000000000000000000000000000005F
:1001A000000000000000000000000000000000004F
:1001B000000000000000000000000000000000003F
:1001C000000000000000000000000000000000002F
:1001D000000000000000000000000000000000001F
:1001E000000000000000000000000000000000000F
:1001F00000000000000000000000000000000000FF
:1002000010B5054C237833B9044B13B10448AFF350
:1002100000800123237010BD70000020000000004A
:10022000A40D000008B5034B1BB103490348AFF30D
:10023000008008BD0000000074000020A40D000034
:10024000154B002B08BF134B9D46A3F5803A0021A8
:100250008B460F461348144A121A00F079FD0F4BD3
:10026000002B00D098470E4B002B00D09847002061
:10027000002104000D000D48002802D00C48AFF307
:10028000008000F041FD2000290000F01FFB00F07D
:1002900027FD00BF00000800000001200000000052
:1002A0000000000070000020E800002000000000B6
:1002B000000000000649074A074B9B1A03DD043B78
:1002C000C858D050FBDC00F031FBFFF7B9FF00004D
:1002D000B00D00000000002070000020FEE7FEE7E7
:1002E000FEE7FEE7FEE7FEE7FEE7FEE7FEE7FEE7E6
:1002F00000B585B00346002101AA44F20100CDE912
:100300000111039300F004F805B05DF804FB00BF91
:1003100072B6094B1B68DB0700D500BEBFF34F8FD9
:100320000649074BCA6802F4E0621343CB60BFF38F
:100330004F8F00BFFDE700BFF0ED00E000ED00E0F3
:100340000400FA05F0B5214C94F8493083B0002B35
:1003500039D14FF0FF3121FA03F2D20748BFE2183A
:1003600003F1010348BF82F82410202BF3D14FF092
:10037000FF334FF0FF364FF0FF37042200211448BF
:100380002362C4E9003384F84430C4E90267C4E955
:100390000467C4E9066700F0DBFC0E4BC02283F85B
:1003A000062340221A600C4B0C4A002018601B6880
:1003B0000193019D01214FF0004384F84910C2F8D8
:1003C000043303B0F0BD082003B0F0BD900000205E
:1003D000D500002000E100E07C61004000600040AA
:1003E0004FF0A0410122D1F8043502FA00F020EAD2
:1003F00003020340C1F80825C1F80C35704700BF5F
:10040000F0B44D4B1C1894F92450002D60DA8D780F
:10041000AF071BD51D68013500F083805C6801348F
:100420006FD09C68013474D0DC68013473D01C69CF
:10043000013472D05C69013471D09C69013476D08A
:10044000DC69013475D00420F0BC70471D6A0135A9
:10045000F9D1082584F824501A6283F844002C4608
:100460008A78550714D4D60741D44D784FF0A0466A
:1004700000F5E072AD0046F82250304EC50800F09D
:10048000070C775D012202FA0CF23A4372558A7822
:1004900012F002021FD0A30003F1804303F5C04312
:1004A0000978D3F8104524F4473424F44074C3F891
:1004B000104502020904D3F8100501F4403102F49A
:1004C000F8520A430243C3F810250020F0BC7047DD
:1004D0000820F0BC7047083C2344087893F8441087
:1004E00041EA801183F844101046F0BC7047820046
:1004F00002F1A042D2F8005725F00205C2F80057D9
:10050000BBE701241D1843F8242064B285F8244079
:10051000A6E70224F6E70324F4E70424F2E705241F
:10052000F0E7002584F824501A602C4698E706244A
:10053000E8E70724E6E700BF90000020D500002090
:1005400070B42C4C251883B095F92420072A1CDDA3
:10055000224492F83C309B09032B40D0012B0CBF66
:100560004FF400334FF44033800000F1A040D0F846
:10057000002722F44032C0F80027D0F800271343A8
:10058000C0F8003703B070BC7047D3B2072BF9D85E
:10059000900000F1804000F5C04002F140039B0054
:1005A000D0F810659BB203F1804303F5C04346F0D9
:1005B0000106C0F81065002018601B680193019BBC
:1005C0000029DFD095F9243054F82330002BD9D0FE
:1005D0000949012303FA02F2C1F80423D2E74FF0DC
:1005E000A043D3F81035C34003F0010302331B04CA
:1005F000BAE700BF9000002000600040F0B585B071
:100600008F4A002301931168012900F00A811E46D8
:100610008C4B1A68012A00F0F6808B4B1A68012A6D
:1006200000F0E380894B1A68012A00F0D080884BE3
:100630001A68012A00F0BD80864B1A68012A00F072
:10064000AA80854B1A68012A00F09780834B1A68AC
:10065000012A06D0824B1B68012B12D016BB05B0B5
:10066000F0BD804AD2F804231206F3D500221A60A6
:100670001A6802926033029A1B68012B46F08006CA
:1006800010D1774B00221A601B6803934FF0A043F0
:10069000039AD3F82025019246F00041C3F82025A3
:1006A000EEB10E46704F01250024A30003F18043F4
:1006B000354203F5C0434FEA45050BD0D3F810058A
:1006C00057F82420D3F81015C0F30420C1F30141DA
:1006D00002B190470134082CE7D1002EBFDA624EF8
:1006E00001254FF0A04496F94400431C38D0C0F3D4
:1006F000C20204AB1A4400F0070312F80C2C05FAEE
:1007000003F31A42C1B200F03F0029D0830003F185
:10071000A04305FA00FCD3F80027D3F8007727F4AC
:100720004037C3F80077C2F30142D3F80077022ABA
:100730000CBF4FF4403E4FF4003E47EA0E0E371810
:10074000C3F800E7C4F820C597F9243056F82330E1
:1007500033B1890903290ED0022A6ED0032A08D0AA
:10076000D4F820350193C4F82035002BBBD105B057
:10077000F0BD0229F4D19847F2E73A4AD2F80423AF
:1007800051067FF563AF00221A601B680293029B3B
:1007900046F040065AE7334AD2F8042390067FF524
:1007A00050AF00221A601B680293029B46F020069D
:1007B00047E72C4AD2F80423D4067FF53DAF002248
:1007C0001A601B680293029B46F0100634E7254A24
:1007D000D2F8042315077FF52AAF00221A601B68A0
:1007E0000293029B46F0080621E71E4AD2F8042332
:1007F00057077FF517AF00221A601B680293029B10
:1008000046F004060EE7174AD2F8042392077FF554
:1008100004AF00221A601B680293029B46F0020696
:10082000FBE61049D1F8046316F001063FF4F0AE80
:10083000136013680293029BEAE6012990D19AE7BC
:100840000061004004610040086100400C6100400C
:100850001061004014610040186100401C610040BC
:100860007C61004000600040900000202DE9F041D4
:10087000114CDFF84C80114E82B000254FF48037C8
:10088000236807FA05F101357BB1D8F80423A4F5F4
:10089000004011424FF0000380B206D0236023686D
:1008A0000193D6E90031019A9847042D04F104041C
:1008B000E6D102B0BDE8F08140810040DC000020BC
:1008C000008000401120FFF78BBD00BF00B54FF046
:1008D000A0434FF440320321C3F8441783B0C3F858
:1008E0003427C3F83827FFF72DFDA0B90D4B0E4A6A
:1008F0001B68ADF8043003241B0C01A90D208DF8F2
:1009000006308DF80540FFF77BFD38B901210D2039
:10091000FFF716FEFEE7FFF7EBFCE7E7FFF7E8FC63
:10092000F4E700BF7C0D0000C508000030B4B24BF6
:100930001B68591C04BFB14B1B78062B05D1B04B6B
:10094000B04A1B68C3F304231360AC4B1B78062B1F
:1009500000F0FD80A84B1B685A1C04BFA74B1B78F6
:10096000062B05D1A84BA94A1B68C3F34233136079
:10097000A24B1B78062B00F0D7809F4B1B685D1C99
:1009800004BF9E4B1B78062B08D14FF080430022FA
:10099000C3F80C21C3F81021C3F83825974B1B78F6
:1009A000062B00F0A180944B1A68541C24D0984B5D
:1009B000062A1B6828D0974AD2F8883043F470037F
:1009C000C2F88830BFF34F8FBFF36F8F8A4B1B681D
:1009D000062B00F0CD804FF01023D3F80022002A20
:1009E000C0F24681D3F80432002BC0F241818A4B19
:1009F0008A4A1A6030BC70478049894B09781B6865
:100A00000629D8D1C3F30313033B042B40F2CA8059
:100A10004FF08052834BD2F80414C3F82015D2F85B
:100A20000814C3F82415D2F80C14C3F82815D2F80A
:100A30001014C3F82C15D2F81414C3F83015D2F8DA
:100A40001814C3F83415D2F81C14C3F84015D2F8A2
:100A50002014C3F84415D2F82414C3F84815D2F86A
:100A60002814C3F84C15D2F82C14C3F85015D2F83A
:100A70003014C3F85415D2F83414C3F86015D2F802
:100A80003814C3F86415D2F83C14C3F86815D2F8CA
:100A900040145948C3F86C15D2F844140268C3F8DE
:100AA0007015501C00F0A280062A84D15E4B524A79
:100AB0001B685E49126803F04F030B60511C77D02E
:100AC000062A7FF478AF4FF08043D3F80034DA077A
:100AD0007AD44F4B1B68033B042B5DD9544A1368EF
:100AE00043F48063136066E74D4B1B68C3F3031345
:100AF000033B042B3FF657AF4E4AD25C12B14E4A2D
:100B0000032111604D4AD35C002B3FF44CAF4C4A9B
:100B10004C4C4D494D4B05201060012500203F22D3
:100B2000256008601A603EE73D4B1B68C3F3031362
:100B3000033B042B3FF621AF454AD35C002B3FF427
:100B40001CAF444AD36823F08073D36015E7344B5D
:100B50001B68C3F30313033B042B3FF6FBAE3E4A73
:100B6000D35C002B3FF4F6AE3C4B3D4A1A60F1E6F5
:100B7000274B1B68033B042B08D94FF010224FF082
:100B80008043D2F80822C3F8582524E7354AD35CBD
:100B9000002B3FF420AFF0E7334AD35C002B3FF447
:100BA0000AAF9BE73149CB5C002B3FF47AAF2FE7CC
:100BB000124B1B78062B7FF4FEAE4FF08043D3F828
:100BC0000034DB077FF5F7AE0B4B1B684FF080421C
:100BD0006FF00101062BC2F800147FF4ECAE0C4B51
:100BE0001B68033B042B3FF679AFD5E7034B1B781B
:100BF000062B3FF45BAFDEE630010010E00F00F0A3
:100C00002403001040350140440200103C05004020
:100C10003401001000ED00E0000000200090D0033F
:100C2000E80F00F000C0004058020010E40E004041
:100C30003C170040980D0000A0050040980D0000F2
:100C40001056004088560040185600401456004088
:100C5000980D0000F0ED00E0980D000074C0074012
:100C60000DF0ADBA900D0000880D0000800D000061
:100C7000184A0123C2F80435D2F80034002BFBD007
:100C80004FF010231521134AC3F80012D2F8003494
:100C9000002BFBD04FF0102315210E4AC3F804128D
:100CA000D2F80034002BFBD000230A49C2F80435E7
:100CB000D1F80034002BFBD0BFF34F8F0649074B10
:100CC000CA6802F4E0621343CB60BFF34F8F00BFEA
:100CD000FDE700BF00E0014000ED00E00400FA0580
:100CE00008B5074B044613B10021AFF30080054B54
:100CF0001868836A03B19847204600F031F800BFB6
:100D000000000000A00D000070B50D4D0D4C641BDF
:100D1000A4100026A64209D10B4D0C4C00F022F87D
:100D2000641BA4100026A64205D170BD55F8043BF3
:100D300098470136EEE755F8043B98470136F2E74D
:100D4000640000206400002064000020680000208F
:100D500002440346934200D1704703F8011BF9E7B0
:100D6000FEE700BFF8B500BFF8BC08BC9E46704760
:100D7000F8B500BFF8BC08BC9E46704703000200EF
:100D8000000001010100000000000001010000005E
:100D90000000000001000000010000000000000051
:080DA000040000200000000027
:080DA80098F4FF7F0100000038
:100DB0000090D003000000000000000000000000D0
:100DC0000000000000000000000000000000000023
:100DD0000000000000000000000000000000000013
:100DE0000000000000000000000000000000000003
:100DF00000000000000000000000000000000000F3
:100E000000000000000000000000000000000000E2
:0C0E1000000000002502000001020000AC
:04000003000002B542
:00000001FF
